{
  "_format": "hh-sol-artifact-1",
  "contractName": "Staking",
  "sourceName": "contracts/Staking.sol",
  "abi": [
    {
      "inputs": [
        {
          "internalType": "address",
          "name": "stakingToken",
          "type": "address"
        },
        {
          "internalType": "address",
          "name": "reward_token",
          "type": "address"
        }
      ],
      "stateMutability": "nonpayable",
      "type": "constructor"
    },
    {
      "inputs": [],
      "name": "Staking__NeedMoreThanZero",
      "type": "error"
    },
    {
      "inputs": [],
      "name": "Staking__TransferFailed",
      "type": "error"
    },
    {
      "anonymous": false,
      "inputs": [
        {
          "indexed": false,
          "internalType": "address",
          "name": "sender",
          "type": "address"
        },
        {
          "indexed": false,
          "internalType": "uint256",
          "name": "amount",
          "type": "uint256"
        }
      ],
      "name": "StakeEvent",
      "type": "event"
    },
    {
      "inputs": [],
      "name": "REWARD_RATE",
      "outputs": [
        {
          "internalType": "uint256",
          "name": "",
          "type": "uint256"
        }
      ],
      "stateMutability": "view",
      "type": "function"
    },
    {
      "inputs": [],
      "name": "claimReward",
      "outputs": [],
      "stateMutability": "nonpayable",
      "type": "function"
    },
    {
      "inputs": [
        {
          "internalType": "address",
          "name": "account",
          "type": "address"
        }
      ],
      "name": "earned",
      "outputs": [
        {
          "internalType": "uint256",
          "name": "",
          "type": "uint256"
        }
      ],
      "stateMutability": "view",
      "type": "function"
    },
    {
      "inputs": [],
      "name": "rewardsPerToken",
      "outputs": [
        {
          "internalType": "uint256",
          "name": "",
          "type": "uint256"
        }
      ],
      "stateMutability": "view",
      "type": "function"
    },
    {
      "inputs": [
        {
          "internalType": "address",
          "name": "",
          "type": "address"
        }
      ],
      "name": "s_balances",
      "outputs": [
        {
          "internalType": "uint256",
          "name": "",
          "type": "uint256"
        }
      ],
      "stateMutability": "view",
      "type": "function"
    },
    {
      "inputs": [],
      "name": "s_last_update_time",
      "outputs": [
        {
          "internalType": "uint256",
          "name": "",
          "type": "uint256"
        }
      ],
      "stateMutability": "view",
      "type": "function"
    },
    {
      "inputs": [],
      "name": "s_reward_token",
      "outputs": [
        {
          "internalType": "contract IERC20",
          "name": "",
          "type": "address"
        }
      ],
      "stateMutability": "view",
      "type": "function"
    },
    {
      "inputs": [
        {
          "internalType": "address",
          "name": "",
          "type": "address"
        }
      ],
      "name": "s_rewards",
      "outputs": [
        {
          "internalType": "uint256",
          "name": "",
          "type": "uint256"
        }
      ],
      "stateMutability": "view",
      "type": "function"
    },
    {
      "inputs": [],
      "name": "s_rewards_per_token_stored",
      "outputs": [
        {
          "internalType": "uint256",
          "name": "",
          "type": "uint256"
        }
      ],
      "stateMutability": "view",
      "type": "function"
    },
    {
      "inputs": [],
      "name": "s_staking_token",
      "outputs": [
        {
          "internalType": "contract IERC20",
          "name": "",
          "type": "address"
        }
      ],
      "stateMutability": "view",
      "type": "function"
    },
    {
      "inputs": [],
      "name": "s_total_balances",
      "outputs": [
        {
          "internalType": "uint256",
          "name": "",
          "type": "uint256"
        }
      ],
      "stateMutability": "view",
      "type": "function"
    },
    {
      "inputs": [
        {
          "internalType": "address",
          "name": "",
          "type": "address"
        }
      ],
      "name": "s_user_reward_per_token_paid",
      "outputs": [
        {
          "internalType": "uint256",
          "name": "",
          "type": "uint256"
        }
      ],
      "stateMutability": "view",
      "type": "function"
    },
    {
      "inputs": [
        {
          "internalType": "uint256",
          "name": "amount",
          "type": "uint256"
        }
      ],
      "name": "stake",
      "outputs": [],
      "stateMutability": "nonpayable",
      "type": "function"
    },
    {
      "inputs": [
        {
          "internalType": "uint256",
          "name": "amount",
          "type": "uint256"
        }
      ],
      "name": "withdraw",
      "outputs": [],
      "stateMutability": "nonpayable",
      "type": "function"
    }
  ],
  "bytecode": "0x60806040523480156200001157600080fd5b50604051620011e5380380620011e58339818101604052810190620000379190620000d7565b816000806101000a81548173ffffffffffffffffffffffffffffffffffffffff021916908373ffffffffffffffffffffffffffffffffffffffff16021790555080600160006101000a81548173ffffffffffffffffffffffffffffffffffffffff021916908373ffffffffffffffffffffffffffffffffffffffff160217905550505062000171565b600081519050620000d18162000157565b92915050565b60008060408385031215620000f157620000f062000152565b5b60006200010185828601620000c0565b92505060206200011485828601620000c0565b9150509250929050565b60006200012b8262000132565b9050919050565b600073ffffffffffffffffffffffffffffffffffffffff82169050919050565b600080fd5b62000162816200011e565b81146200016e57600080fd5b50565b61106480620001816000396000f3fe608060405234801561001057600080fd5b50600436106100e95760003560e01c806370641a361161008c578063ab32eb6911610066578063ab32eb691461023a578063b6338b461461026a578063b88a802f14610288578063bea0815114610292576100e9565b806370641a36146101e2578063880d9bdf14610200578063a694fc3a1461021e576100e9565b8063419fded6116100c8578063419fded6146101585780635997bb37146101885780635cb1e5ea146101a657806367371fa8146101c4576100e9565b80628cc262146100ee5780632e1a7d4d1461011e57806337c12e491461013a575b600080fd5b61010860048036038101906101039190610ca9565b6102c2565b6040516101159190610dd8565b60405180910390f35b61013860048036038101906101339190610d03565b6103e1565b005b6101426106d3565b60405161014f9190610dbd565b60405180910390f35b610172600480360381019061016d9190610ca9565b6106f9565b60405161017f9190610dd8565b60405180910390f35b610190610711565b60405161019d9190610dd8565b60405180910390f35b6101ae610716565b6040516101bb9190610dd8565b60405180910390f35b6101cc61071c565b6040516101d99190610dd8565b60405180910390f35b6101ea610722565b6040516101f79190610dd8565b60405180910390f35b610208610785565b6040516102159190610dd8565b60405180910390f35b61023860048036038101906102339190610d03565b61078b565b005b610254600480360381019061024f9190610ca9565b610a3b565b6040516102619190610dd8565b60405180910390f35b610272610a53565b60405161027f9190610dbd565b60405180910390f35b610290610a77565b005b6102ac60048036038101906102a79190610ca9565b610c52565b6040516102b99190610dd8565b60405180910390f35b600080600560008473ffffffffffffffffffffffffffffffffffffffff1673ffffffffffffffffffffffffffffffffffffffff1681526020019081526020016000205490506000600760008573ffffffffffffffffffffffffffffffffffffffff1673ffffffffffffffffffffffffffffffffffffffff1681526020019081526020016000205490506000610355610722565b90506000600660008773ffffffffffffffffffffffffffffffffffffffff1673ffffffffffffffffffffffffffffffffffffffff168152602001908152602001600020549050600081670de0b6b3a764000085856103b39190610ed4565b876103be9190610e7a565b6103c89190610e49565b6103d29190610df3565b90508095505050505050919050565b80600081141561041d576040517ffc89637d00000000000000000000000000000000000000000000000000000000815260040160405180910390fd5b33610426610722565b6003819055504260048190555061043c816102c2565b600660008373ffffffffffffffffffffffffffffffffffffffff1673ffffffffffffffffffffffffffffffffffffffff16815260200190815260200160002081905550600354600760008373ffffffffffffffffffffffffffffffffffffffff1673ffffffffffffffffffffffffffffffffffffffff1681526020019081526020016000208190555082600560003373ffffffffffffffffffffffffffffffffffffffff1673ffffffffffffffffffffffffffffffffffffffff168152602001908152602001600020541061069c5782600560003373ffffffffffffffffffffffffffffffffffffffff1673ffffffffffffffffffffffffffffffffffffffff168152602001908152602001600020546105569190610ed4565b600560003373ffffffffffffffffffffffffffffffffffffffff1673ffffffffffffffffffffffffffffffffffffffff16815260200190815260200160002081905550826002546105a79190610ed4565b60028190555060008060009054906101000a900473ffffffffffffffffffffffffffffffffffffffff1673ffffffffffffffffffffffffffffffffffffffff1663a9059cbb33866040518363ffffffff1660e01b815260040161060b929190610d94565b602060405180830381600087803b15801561062557600080fd5b505af1158015610639573d6000803e3d6000fd5b505050506040513d601f19601f8201168201806040525081019061065d9190610cd6565b905080610696576040517feb4c684700000000000000000000000000000000000000000000000000000000815260040160405180910390fd5b506106ce565b6040517feb4c684700000000000000000000000000000000000000000000000000000000815260040160405180910390fd5b505050565b600160009054906101000a900473ffffffffffffffffffffffffffffffffffffffff1681565b60076020528060005260406000206000915090505481565b606481565b60025481565b60035481565b6000806002541415610738576003549050610782565b600254670de0b6b3a76400006064600454426107549190610ed4565b61075e9190610e7a565b6107689190610e7a565b6107729190610e49565b60035461077f9190610df3565b90505b90565b60045481565b8060008114156107c7576040517ffc89637d00000000000000000000000000000000000000000000000000000000815260040160405180910390fd5b336107d0610722565b600381905550426004819055506107e6816102c2565b600660008373ffffffffffffffffffffffffffffffffffffffff1673ffffffffffffffffffffffffffffffffffffffff16815260200190815260200160002081905550600354600760008373ffffffffffffffffffffffffffffffffffffffff1673ffffffffffffffffffffffffffffffffffffffff1681526020019081526020016000208190555082600560003373ffffffffffffffffffffffffffffffffffffffff1673ffffffffffffffffffffffffffffffffffffffff168152602001908152602001600020546108ba9190610df3565b600560003373ffffffffffffffffffffffffffffffffffffffff1673ffffffffffffffffffffffffffffffffffffffff168152602001908152602001600020819055508260025461090b9190610df3565b60028190555060008060009054906101000a900473ffffffffffffffffffffffffffffffffffffffff1673ffffffffffffffffffffffffffffffffffffffff166323b872dd3330876040518463ffffffff1660e01b815260040161097193929190610d5d565b602060405180830381600087803b15801561098b57600080fd5b505af115801561099f573d6000803e3d6000fd5b505050506040513d601f19601f820116820180604052508101906109c39190610cd6565b9050806109fc576040517feb4c684700000000000000000000000000000000000000000000000000000000815260040160405180910390fd5b7fb58845b0a64f92dd8d1ba04f905319d6be2021b57783b3d10155e7e36a84e1283385604051610a2d929190610d94565b60405180910390a150505050565b60056020528060005260406000206000915090505481565b60008054906101000a900473ffffffffffffffffffffffffffffffffffffffff1681565b33610a80610722565b60038190555042600481905550610a96816102c2565b600660008373ffffffffffffffffffffffffffffffffffffffff1673ffffffffffffffffffffffffffffffffffffffff16815260200190815260200160002081905550600354600760008373ffffffffffffffffffffffffffffffffffffffff1673ffffffffffffffffffffffffffffffffffffffff168152602001908152602001600020819055506000600660003373ffffffffffffffffffffffffffffffffffffffff1673ffffffffffffffffffffffffffffffffffffffff1681526020019081526020016000205490506000600160009054906101000a900473ffffffffffffffffffffffffffffffffffffffff1673ffffffffffffffffffffffffffffffffffffffff1663a9059cbb33846040518363ffffffff1660e01b8152600401610bc2929190610d94565b602060405180830381600087803b158015610bdc57600080fd5b505af1158015610bf0573d6000803e3d6000fd5b505050506040513d601f19601f82011682018060405250810190610c149190610cd6565b905080610c4d576040517feb4c684700000000000000000000000000000000000000000000000000000000815260040160405180910390fd5b505050565b60066020528060005260406000206000915090505481565b600081359050610c7981610fe9565b92915050565b600081519050610c8e81611000565b92915050565b600081359050610ca381611017565b92915050565b600060208284031215610cbf57610cbe610fe4565b5b6000610ccd84828501610c6a565b91505092915050565b600060208284031215610cec57610ceb610fe4565b5b6000610cfa84828501610c7f565b91505092915050565b600060208284031215610d1957610d18610fe4565b5b6000610d2784828501610c94565b91505092915050565b610d3981610f08565b82525050565b610d4881610f50565b82525050565b610d5781610f46565b82525050565b6000606082019050610d726000830186610d30565b610d7f6020830185610d30565b610d8c6040830184610d4e565b949350505050565b6000604082019050610da96000830185610d30565b610db66020830184610d4e565b9392505050565b6000602082019050610dd26000830184610d3f565b92915050565b6000602082019050610ded6000830184610d4e565b92915050565b6000610dfe82610f46565b9150610e0983610f46565b9250827fffffffffffffffffffffffffffffffffffffffffffffffffffffffffffffffff03821115610e3e57610e3d610f86565b5b828201905092915050565b6000610e5482610f46565b9150610e5f83610f46565b925082610e6f57610e6e610fb5565b5b828204905092915050565b6000610e8582610f46565b9150610e9083610f46565b9250817fffffffffffffffffffffffffffffffffffffffffffffffffffffffffffffffff0483118215151615610ec957610ec8610f86565b5b828202905092915050565b6000610edf82610f46565b9150610eea83610f46565b925082821015610efd57610efc610f86565b5b828203905092915050565b6000610f1382610f26565b9050919050565b60008115159050919050565b600073ffffffffffffffffffffffffffffffffffffffff82169050919050565b6000819050919050565b6000610f5b82610f62565b9050919050565b6000610f6d82610f74565b9050919050565b6000610f7f82610f26565b9050919050565b7f4e487b7100000000000000000000000000000000000000000000000000000000600052601160045260246000fd5b7f4e487b7100000000000000000000000000000000000000000000000000000000600052601260045260246000fd5b600080fd5b610ff281610f08565b8114610ffd57600080fd5b50565b61100981610f1a565b811461101457600080fd5b50565b61102081610f46565b811461102b57600080fd5b5056fea26469706673582212208571646d6e2b362b66993ec592331021365a4b270094a60e8eefce41a172e1aa64736f6c63430008070033",
  "linkReferences": {},
  "deployedLinkReferences": {}
}